{
  "_format": "hh-sol-artifact-1",
  "contractName": "TokenFaucet",
  "sourceName": "contracts/TokenFaucet.sol",
  "abi": [
    {
      "inputs": [
        {
          "internalType": "address",
          "name": "_token",
          "type": "address"
        }
      ],
      "stateMutability": "nonpayable",
      "type": "constructor"
    },
    {
      "inputs": [
        {
          "internalType": "uint256",
          "name": "timeRemaining",
          "type": "uint256"
        }
      ],
      "name": "Faucet__CooldownNotElapsed",
      "type": "error"
    },
    {
      "inputs": [],
      "name": "Faucet__InsufficientAllowance",
      "type": "error"
    },
    {
      "inputs": [],
      "name": "Faucet__MaxClaimLimitReached",
      "type": "error"
    },
    {
      "inputs": [],
      "name": "Faucet__Paused",
      "type": "error"
    },
    {
      "inputs": [],
      "name": "Faucet__Unauthorized",
      "type": "error"
    },
    {
      "anonymous": false,
      "inputs": [
        {
          "indexed": false,
          "internalType": "bool",
          "name": "paused",
          "type": "bool"
        }
      ],
      "name": "FaucetPaused",
      "type": "event"
    },
    {
      "anonymous": false,
      "inputs": [
        {
          "indexed": true,
          "internalType": "address",
          "name": "user",
          "type": "address"
        },
        {
          "indexed": false,
          "internalType": "uint256",
          "name": "amount",
          "type": "uint256"
        },
        {
          "indexed": false,
          "internalType": "uint256",
          "name": "timestamp",
          "type": "uint256"
        }
      ],
      "name": "TokensClaimed",
      "type": "event"
    },
    {
      "inputs": [],
      "name": "COOLDOWN_TIME",
      "outputs": [
        {
          "internalType": "uint256",
          "name": "",
          "type": "uint256"
        }
      ],
      "stateMutability": "view",
      "type": "function"
    },
    {
      "inputs": [],
      "name": "FAUCET_AMOUNT",
      "outputs": [
        {
          "internalType": "uint256",
          "name": "",
          "type": "uint256"
        }
      ],
      "stateMutability": "view",
      "type": "function"
    },
    {
      "inputs": [],
      "name": "MAX_CLAIM_AMOUNT",
      "outputs": [
        {
          "internalType": "uint256",
          "name": "",
          "type": "uint256"
        }
      ],
      "stateMutability": "view",
      "type": "function"
    },
    {
      "inputs": [],
      "name": "admin",
      "outputs": [
        {
          "internalType": "address",
          "name": "",
          "type": "address"
        }
      ],
      "stateMutability": "view",
      "type": "function"
    },
    {
      "inputs": [
        {
          "internalType": "address",
          "name": "user",
          "type": "address"
        }
      ],
      "name": "canClaim",
      "outputs": [
        {
          "internalType": "bool",
          "name": "",
          "type": "bool"
        }
      ],
      "stateMutability": "view",
      "type": "function"
    },
    {
      "inputs": [],
      "name": "isPaused",
      "outputs": [
        {
          "internalType": "bool",
          "name": "",
          "type": "bool"
        }
      ],
      "stateMutability": "view",
      "type": "function"
    },
    {
      "inputs": [
        {
          "internalType": "address",
          "name": "",
          "type": "address"
        }
      ],
      "name": "lastClaimAt",
      "outputs": [
        {
          "internalType": "uint256",
          "name": "",
          "type": "uint256"
        }
      ],
      "stateMutability": "view",
      "type": "function"
    },
    {
      "inputs": [],
      "name": "paused",
      "outputs": [
        {
          "internalType": "bool",
          "name": "",
          "type": "bool"
        }
      ],
      "stateMutability": "view",
      "type": "function"
    },
    {
      "inputs": [
        {
          "internalType": "address",
          "name": "user",
          "type": "address"
        }
      ],
      "name": "remainingAllowance",
      "outputs": [
        {
          "internalType": "uint256",
          "name": "",
          "type": "uint256"
        }
      ],
      "stateMutability": "view",
      "type": "function"
    },
    {
      "inputs": [],
      "name": "requestTokens",
      "outputs": [],
      "stateMutability": "nonpayable",
      "type": "function"
    },
    {
      "inputs": [
        {
          "internalType": "bool",
          "name": "_paused",
          "type": "bool"
        }
      ],
      "name": "setPaused",
      "outputs": [],
      "stateMutability": "nonpayable",
      "type": "function"
    },
    {
      "inputs": [],
      "name": "token",
      "outputs": [
        {
          "internalType": "contract FaucetToken",
          "name": "",
          "type": "address"
        }
      ],
      "stateMutability": "view",
      "type": "function"
    },
    {
      "inputs": [
        {
          "internalType": "address",
          "name": "",
          "type": "address"
        }
      ],
      "name": "totalClaimed",
      "outputs": [
        {
          "internalType": "uint256",
          "name": "",
          "type": "uint256"
        }
      ],
      "stateMutability": "view",
      "type": "function"
    }
  ],
  "bytecode": "0x608060405234801561001057600080fd5b50604051610d9a380380610d9a83398181016040528101906100329190610137565b806000806101000a81548173ffffffffffffffffffffffffffffffffffffffff021916908373ffffffffffffffffffffffffffffffffffffffff16021790555033600160006101000a81548173ffffffffffffffffffffffffffffffffffffffff021916908373ffffffffffffffffffffffffffffffffffffffff1602179055506000600160146101000a81548160ff02191690831515021790555050610164565b600080fd5b600073ffffffffffffffffffffffffffffffffffffffff82169050919050565b6000610104826100d9565b9050919050565b610114816100f9565b811461011f57600080fd5b50565b6000815190506101318161010b565b92915050565b60006020828403121561014d5761014c6100d4565b5b600061015b84828501610122565b91505092915050565b610c27806101736000396000f3fe608060405234801561001057600080fd5b50600436106100cf5760003560e01c8063b187bd261161008c578063ef5d9ae811610066578063ef5d9ae8146101f0578063f357df6d14610220578063f851a44014610250578063fc0c546a1461026e576100cf565b8063b187bd2614610184578063bf3506c1146101a2578063e362b4f7146101d2576100cf565b806303822d3b146100d457806316c38b3c14610104578063359cf2b7146101205780635c975abb1461012a57806376697640146101485780637d26324514610166575b600080fd5b6100ee60048036038101906100e99190610974565b61028c565b6040516100fb91906109ba565b60405180910390f35b61011e60048036038101906101199190610a0d565b6102a4565b005b61012861037f565b005b6101326106ce565b60405161013f9190610a49565b60405180910390f35b6101506106e1565b60405161015d91906109ba565b60405180910390f35b61016e6106ee565b60405161017b91906109ba565b60405180910390f35b61018c6106f5565b6040516101999190610a49565b60405180910390f35b6101bc60048036038101906101b79190610974565b61070c565b6040516101c99190610a49565b60405180910390f35b6101da6107ec565b6040516101e791906109ba565b60405180910390f35b61020a60048036038101906102059190610974565b6107f9565b60405161021791906109ba565b60405180910390f35b61023a60048036038101906102359190610974565b610811565b60405161024791906109ba565b60405180910390f35b6102586108c7565b6040516102659190610a73565b60405180910390f35b6102766108ed565b6040516102839190610aed565b60405180910390f35b60026020528060005260406000206000915090505481565b600160009054906101000a900473ffffffffffffffffffffffffffffffffffffffff1673ffffffffffffffffffffffffffffffffffffffff163373ffffffffffffffffffffffffffffffffffffffff161461032b576040517fe1f5f66100000000000000000000000000000000000000000000000000000000815260040160405180910390fd5b80600160146101000a81548160ff0219169083151502179055507f50cfd8deb0b293676ae69355a9eed053a00f81d3bd6a0ae4dc082629e6476f7f816040516103749190610a49565b60405180910390a150565b600160149054906101000a900460ff16156103c6576040517fefc6493b00000000000000000000000000000000000000000000000000000000815260040160405180910390fd5b6103cf3361070c565b6104e957683635c9adc5dea00000600360003373ffffffffffffffffffffffffffffffffffffffff1673ffffffffffffffffffffffffffffffffffffffff1681526020019081526020016000205410610454576040517fb5af882f00000000000000000000000000000000000000000000000000000000815260040160405180910390fd5b4262015180600260003373ffffffffffffffffffffffffffffffffffffffff1673ffffffffffffffffffffffffffffffffffffffff168152602001908152602001600020546104a39190610b37565b6104ad9190610b6b565b6040517f1abd5e400000000000000000000000000000000000000000000000000000000081526004016104e091906109ba565b60405180910390fd5b60006104f433610811565b905068056bc75e2d63100000811015610539576040517f16e5dcc700000000000000000000000000000000000000000000000000000000815260040160405180910390fd5b42600260003373ffffffffffffffffffffffffffffffffffffffff1673ffffffffffffffffffffffffffffffffffffffff1681526020019081526020016000208190555068056bc75e2d63100000600360003373ffffffffffffffffffffffffffffffffffffffff1673ffffffffffffffffffffffffffffffffffffffff16815260200190815260200160002060008282546105d59190610b37565b9250508190555060008054906101000a900473ffffffffffffffffffffffffffffffffffffffff1673ffffffffffffffffffffffffffffffffffffffff166340c10f193368056bc75e2d631000006040518363ffffffff1660e01b8152600401610640929190610b9f565b600060405180830381600087803b15801561065a57600080fd5b505af115801561066e573d6000803e3d6000fd5b505050503373ffffffffffffffffffffffffffffffffffffffff167f9923b4306c6c030f2bdfbf156517d5983b87e15b96176da122cd4f2effa4ba7b68056bc75e2d63100000426040516106c3929190610bc8565b60405180910390a250565b600160149054906101000a900460ff1681565b68056bc75e2d6310000081565b6201518081565b6000600160149054906101000a900460ff16905090565b6000600160149054906101000a900460ff161561072c57600090506107e7565b683635c9adc5dea00000600360008473ffffffffffffffffffffffffffffffffffffffff1673ffffffffffffffffffffffffffffffffffffffff168152602001908152602001600020541061078457600090506107e7565b62015180600260008473ffffffffffffffffffffffffffffffffffffffff1673ffffffffffffffffffffffffffffffffffffffff168152602001908152602001600020546107d29190610b37565b4210156107e257600090506107e7565b600190505b919050565b683635c9adc5dea0000081565b60036020528060005260406000206000915090505481565b6000683635c9adc5dea00000600360008473ffffffffffffffffffffffffffffffffffffffff1673ffffffffffffffffffffffffffffffffffffffff168152602001908152602001600020541061086b57600090506108c2565b600360008373ffffffffffffffffffffffffffffffffffffffff1673ffffffffffffffffffffffffffffffffffffffff16815260200190815260200160002054683635c9adc5dea000006108bf9190610b6b565b90505b919050565b600160009054906101000a900473ffffffffffffffffffffffffffffffffffffffff1681565b60008054906101000a900473ffffffffffffffffffffffffffffffffffffffff1681565b600080fd5b600073ffffffffffffffffffffffffffffffffffffffff82169050919050565b600061094182610916565b9050919050565b61095181610936565b811461095c57600080fd5b50565b60008135905061096e81610948565b92915050565b60006020828403121561098a57610989610911565b5b60006109988482850161095f565b91505092915050565b6000819050919050565b6109b4816109a1565b82525050565b60006020820190506109cf60008301846109ab565b92915050565b60008115159050919050565b6109ea816109d5565b81146109f557600080fd5b50565b600081359050610a07816109e1565b92915050565b600060208284031215610a2357610a22610911565b5b6000610a31848285016109f8565b91505092915050565b610a43816109d5565b82525050565b6000602082019050610a5e6000830184610a3a565b92915050565b610a6d81610936565b82525050565b6000602082019050610a886000830184610a64565b92915050565b6000819050919050565b6000610ab3610aae610aa984610916565b610a8e565b610916565b9050919050565b6000610ac582610a98565b9050919050565b6000610ad782610aba565b9050919050565b610ae781610acc565b82525050565b6000602082019050610b026000830184610ade565b92915050565b7f4e487b7100000000000000000000000000000000000000000000000000000000600052601160045260246000fd5b6000610b42826109a1565b9150610b4d836109a1565b9250828201905080821115610b6557610b64610b08565b5b92915050565b6000610b76826109a1565b9150610b81836109a1565b9250828203905081811115610b9957610b98610b08565b5b92915050565b6000604082019050610bb46000830185610a64565b610bc160208301846109ab565b9392505050565b6000604082019050610bdd60008301856109ab565b610bea60208301846109ab565b939250505056fea2646970667358221220549393ca3683054b2c686395cb95dce350da0e89626bdd9146449e6b49db888064736f6c63430008140033",
  "linkReferences": {},
  "deployedLinkReferences": {}
}